:1000000001308A00D42900000F30831685000330A8
:1000100086008312E72983161F109F101F159F115A
:100020001F1783121F179F1383169F1383121F140A
:10003000940183160108C039810083129001703049
:1000400083168F000F088312E8290830AE02031CC4
:1000500035282E30840083130310800C0008031908
:10006000352833280000800B322808000615AC0123
:10007000AB012C082A02031C5728031D432829081A
:100080002B020318572886150230AD00F830AE0059
:100090002520AD0B462886110230AD00F830AE00A9
:1000A0002520AD0B4E28AB0A0319AC0A39280611DE
:1000B000861108002A3084008313000803196D2874
:1000C0000230F800F701F70B6328F80B622897302D
:1000D000F700F70B6928800B6028080005196E28C7
:1000E0000830F700A801F7178328F71383280310B7
:1000F00005190314A80C771783287713F70B7728B3
:100100002808F8008E283F30F71B1130F800F80B54
:100110008728F71B7528771B7D287728F929AA01DE
:10012000C830A9003620C830AA005A200800023082
:10013000AA005830A9003620C830AA005A2008006A
:100140002808603C0318AA2828087A3C031CAA281F
:100150002030A8022808413A03191B29033A031941
:100160001E29013A03192329073A03192829013ABC
:1001700003192C29033A03192E29013A03193329AB
:100180000F3A03193729013A03193C29033A031995
:100190003F29013A03194429073A03194829013A2A
:1001A00003194D29033A03195029013A0319532918
:1001B0001F3A03195729013A03195C29033A031915
:1001C0006129013A03196529073A03196929013A96
:1001D00003196B29033A03196F29013A031974298A
:1001E0000F3A03197829013A03197D29033A0319B3
:1001F00082296B3A03198729033A03198D29013A99
:1002000003199329073A03199929013A03199F29D8
:10021000033A0319A529013A0319AB290F3A031927
:10022000B129013A0319B729093A0319BD29103A2E
:100230000319C329CB298F209720CC2997208F2001
:100240008F208F20CC2997208F2097208F20CC299A
:1002500097208F208F20CC298F20CC298F208F2092
:1002600097208F20CC29972097208F20CC298F2072
:100270008F208F208F20CC298F208F20CC298F207A
:10028000972097209720CC2997208F209720CC2942
:100290008F2097208F208F20CC2997209720CC2942
:1002A00097208F20CC29972097209720CC298F202A
:1002B000972097208F20CC29972097208F20972058
:1002C000CC298F2097208F20CC298F208F208F2022
:1002D000CC299720CC298F208F209720CC298F20C4
:1002E0008F208F209720CC298F2097209720CC29F2
:1002F00097208F208F209720CC2997208F20972020
:100300009720CC29972097208F208F20CC298F20D1
:100310009720972097209720CC298F208F209720F7
:1003200097209720CC298F208F208F2097209720EF
:10033000CC298F208F208F208F209720CC298F20B1
:100340008F208F208F208F20CC2997208F208F20E7
:100350008F208F20CC29972097208F208F208F20CF
:10036000CC299720972097208F208F20CC29972069
:100370009720972097208F20CC299720972097208F
:1003800097209720CC290430A900C830AA005A2011
:10039000A90BC529CC29CC290230A900C830AA0054
:1003A0005A20A90BCE29FE29840183131F3083050F
:1003B000703083168F000F088312051683161F14E2
:1003C0009F141F159F118312A001A10104280B285F
:1003D000A6012608023C031CF629AA016430A900E4
:1003E00036206430AA005A20A60AE9290519FE29F8
:1003F0006E287808A7002708A800A028F62963001F
:02400E00101F81
:00000001FF
;PIC16F819
;CRC=A418  CREATED="24-11-25 17:52"
